:020000040000FA
:100000000C948E010C94532F0C94282F0C94FD2EDD
:100010000C94D22E0C94A72E0C947C2E0C94512E62
:100020000C94262E0C94BF010C94BF010C94BF01BC
:100030000C94BF010C945A310C94BF010C94BF0175
:100040000C94BF010C942C310C94BF010C94BF0193
:100050000C94BF010C94BF010C94BF010C94DC2DD7
:100060000C94BF010C94B22D0C94882D0C94BF01FC
:100070000C94BF010C94BF010C94BF010C94BF0100
:100080000C94FE300C94BF010C94BF010C94BF0182
:100090000C94BF010C94BF010C94BF010C947E2FF3
:1000A0000C94BF010C94BF010C94D0300C94BF0190
:1000B0000C94BF010C94BF010C94BF010C94A230AE
:1000C0000C94BF010C94BF010C94BF010C945E2DE5
:1000D0000C94342D0C94BF010C940A2D0C94E02C3C
:1000E0000C94BF010C9415060C942A070C94A425BB
:1000F0000C9433050C9401040C9469320C94FC05A7
:100100000C9457050C94F4050C94C0020C9405044F
:100110000C9474050C9443060C9457020C9413042D
:100120000C94CE020C9428070C94DC030C94E0038E
:100130000C941D050C94A8080C9409040C94ED0370
:100140000C940B060C94EF080C9467030C94F301C9
:100150000C945C060C944E050C9470060C94F303FE
:100160000C947B050C94A30A0C9429070C94F201BF
:100170000C9484060C94FB030C940E040C944D0612
:100180000C94E3030C94E4280C9427060C94F703D6
:100190000C9401060C940F040C94D4030C943906AF
:1001A0000C9498080C94CE030C9405390C94E90334
:1001B0000C94D8030C949D020C94BB080C94AE20B4
:1001C0000C948E060C947A060C941F060C9463050E
:1001D0000C94A60A0C9450050C9499080C940C05E8
:1001E0000C942F060C94AC020C941A030C94C208C5
:1001F0000C9400050C9466060000210024002700E2
:100200002A002D0030003300010100000401070125
:100210000A0100002200250028002B002E003100DA
:10022000340002010000050108010B01000020005C
:100230002300260029002C002F00320000010000BE
:100240000301060109010505050507050808080859
:10025000020202020A0A080804040404010101015E
:100260000101010103030303030303030407070759
:100270000C0C0C0C0C0C0C0C0202020206060606FE
:10028000060606060B0B0B0B0B0B0B0B01021020CB
:1002900020080810204010204080020102010804BC
:1002A0000201010204081020408080402010080450
:1002B00002018004020180402010080402010804A9
:1002C00002010102040810204080010204081020ED
:1002D000408000000A0B02090C0D0E080703040100
:1002E000000000000000000000000000000000000E
:1002F00000000000000000000000000000001211DB
:1003000010000000000000000000000000000000DD
:1003100000000000000000006932053911241FBEF2
:10032000CFEFD1E2DEBFCDBF00E00CBF15E0A0E013
:10033000B2E0EEE2F2E800E00BBF02C007900D92DF
:10034000A63EB107D9F72CE0A6EEB5E001C01D929C
:10035000A13BB207E1F711E0CDE8D1E000E006C033
:1003600021970109802FFE010E94CF3BCC38D10795
:1003700080E00807A9F70E9425340C9405410C94ED
:100380000000FC01A089B18982E08C93A485B58529
:100390001C92A685B7858FEC8C93108EA489B589A5
:1003A00086E08C93A289B3898C9180618C93A28919
:1003B000B3898C9188608C93A289B3898C91806871
:1003C0008C930288F389E02D80818F7D808308954E
:1003D00091E09093BF088093BE081092BD081092E0
:1003E000BC080895089508958F929F92AF92BF928E
:1003F000EF92FF921F93CF93DF931091830B1033F3
:1004000008F04AC02091850B4EE259E07A0134E0B1
:100410002302E018F10811242091840BC8E8D0E0F1
:10042000C21BD10927FDD395CC0FDD1FCC0FDD1FDB
:100430004E010D2E000CAA08BB0897010F2C000CD2
:10044000440B550B281939094A095B09DC010E9444
:10045000573A24EB30E040E050E00E942D3A820E03
:10046000931EA41EB51E8C169D062CF0E7018E145B
:100470009F040CF4E4012297CC0FDD1F2FB7F894F2
:10048000812F90E0FC01EE0FFF1FE80FF91FE956E6
:10049000F54FD283C1832FBFDF91CF911F91FF9082
:1004A000EF90BF90AF909F908F9008950895AF9276
:1004B000BF92CF92DF92EF92FF920F931F93CF9351
:1004C000DF936C017B018B01040F151FEB015E01B3
:1004D000AE18BF08C017D10759F06991D601ED9148
:1004E000FC910190F081E02DC6011995892B79F7D7
:1004F000C501DF91CF911F910F91FF90EF90DF9099
:10050000CF90BF90AF900895FC01A089B1898C91E4
:10051000A689B78982FD0FC09C91818D8F5F8F73F3
:10052000228D821749F0A18DAE0FBF2FB11D5D96B0
:100530009C93818F08958C910895FC01538D448D77
:10054000252F30E0842F90E0821B930B541710F07E
:10055000CF96089501970895FC01918D828D98178B
:1005600061F0A28DAE0FBF2FB11D5D968C91928D63
:100570009F5F9F73928F90E008958FEF9FEF089594
:10058000FC01918D828D981731F0828DE80FF11D5D
:10059000858D90E008958FEF9FEF0895FC01918D78
:1005A000228D892F90E0805C9F4F821B91098F7371
:1005B0009927089580EC98E00E94CE0221E0892BD3
:1005C00009F420E0822F08958DE599E00E94CE0283
:1005D00021E0892B09F420E0822F08958AEF99E029
:1005E0000E94CE0221E0892B09F420E0822F089599
:1005F000FC01A48DA80FB92FB11DA35ABF4F2C9198
:10060000848D90E001968F739927848FA689B7898E
:100610002C93A089B1898C91837080648C93938D85
:10062000848D981306C00288F389E02D80818F7D28
:1006300080830895EF92FF920F931F93CF93DF93E0
:10064000EC0181E0888F9B8D8C8D98131AC0E8890E
:10065000F989808185FF15C09FB7F894EE89FF89DD
:100660006083E889F98980818370806480839FBF7B
:1006700081E090E0DF91CF911F910F91FF90EF907B
:100680000895F62E0B8D10E00F5F1F4F0F7311278B
:10069000E02E8C8D8E110CC00FB607FCFACFE889C6
:1006A000F989808185FFF5CFCE010E94F802F1CF54
:1006B000EB8DEC0FFD2FF11DE35AFF4FF0829FB73A
:1006C000F8940B8FEA89FB8980818062CFCFCF932A
:1006D000DF93EC01888D8823B9F0AA89BB89E8896A
:1006E000F9898C9185FD03C0808186FD0DC00FB610
:1006F00007FCF7CF8C9185FFF2CF808185FFEDCF8E
:10070000CE010E94F802E9CFDF91CF91089580E0F9
:1007100090E0892B29F00E94EE0281110E940000D6
:1007200080E090E0892B49F080E090E0892B29F06F
:100730000E94000081110E94000080E090E0892B5F
:1007400029F00E94E40281110E94000080E090E004
:10075000892B29F00E94DA0281110C94000008957F
:100760008150823108F05AC0E82FF0E08827E45425
:10077000FC4F8F4F0C94CF3BDC03E003CE03D4033C
:10078000D8030E04E303E903ED03F303F703FB03CC
:10079000010405040E0409040F0413048091800071
:1007A0008F77809380000895809180008F7DF9CFAE
:1007B00080918000877FF5CF84B58F7784BD0895C1
:1007C00084B58F7DFBCF8091B0008F778093B00090
:1007D00008958091B0008F7DF9CF809190008F7740
:1007E000809390000895809190008F7DF9CF809143
:1007F0009000877FF5CF8091A0008F778093A00035
:1008000008958091A0008F7DF9CF8091A000877F0F
:10081000F5CF809120018F778093200108958091FA
:1008200020018F7DF9CF80912001877FF5CFCF9375
:10083000DF93282F30E0F901EE52FD4F8491F9014A
:10084000E457FD4FD491F901EA5BFD4FC491CC23ED
:10085000A1F081110E94B003EC2FF0E0EE0FFF1F1A
:10086000E45DFD4FA591B491EC91ED2381E090E022
:1008700009F480E0DF91CF91089580E090E0FACF15
:100880001F93CF93DF93282F30E0F901EE52FD4FF5
:100890008491F901E457FD4FD491F901EA5BFD4FD2
:1008A000C491CC23A9F0162F81110E94B003EC2F24
:1008B000F0E0EE0FFF1FEE5EFD4FA591B4918FB7F4
:1008C000F894EC91111108C0D095DE23DC938FBF12
:1008D000DF91CF911F910895DE2BF8CFCF93DF9357
:1008E000EC018091300B9091310B029749F4C130AB
:1008F000D10509F43DC07CF560E0209709F439C0CA
:100900008091300B9091310B049749F4C130D1059F
:1009100009F45EC00CF039C0209709F444C08091FE
:10092000300B9091310B059709F0E7C0CA30D10523
:1009300008F0E3C0FE018827EF55FB4F8F4F0C9462
:10094000CF3B00050C051D0533054E055005570529
:10095000630574057B05C230D105A9F060E0C330A2
:10096000D10571F68091340B0E94400460E006C00E
:1009700061E08091340B0E94400461E08091360B6D
:100980000E944004BDCF61E0EDCFC230D10539F106
:10099000C330D10509F0C3CF61E08091340B0E94D0
:1009A000400460E022C061E08091340B0E9440046A
:1009B00060E08091360B0E94400461E08091380B2A
:1009C0000E94400460E080913A0B0E944004A7CF4F
:1009D00060E08091340B0E94400461E0EACF60E067
:1009E0008091340B0E94400461E08091360B0E949C
:1009F000400460E08091380B0E94400461E0E3CF46
:100A000060E08091340B0E94400461E08091360BDD
:100A10000E94400461E00BC060E08091340B0E94B2
:100A2000400461E08091360B0E94400460E08091B8
:100A3000380B0E94400460E010C060E08091340BED
:100A40000E94400461E08091360B0E94400460E007
:100A50008091380B0E94400461E080913A0B0E9423
:100A6000400461E015C060E08091340B0E944004B6
:100A700061E08091360B0E94400460E08091380B69
:100A80000E94400461E080913A0B0E94400460E0C3
:100A900080913C0BDF91CF910C94400461E0E4CF56
:100AA00061E08091340B0E94400460E0E2CF61E09D
:100AB0008091340B0E94400460E08091360B0E94CC
:100AC000400461E0DBCF61E08091340B0E94400480
:100AD00060E08091360B0E94400461E08091380B09
:100AE0000E94400460E0CFCF61E08091340B0E940F
:100AF000400460E08BCF60E0F8CFDF91CF910895A4
:100B0000CF93DF9390E0FC01E457FD4F24918A5B83
:100B10009D4FFC0184918823C9F090E0880F991FB4
:100B2000FC01E850FE4FA591B491FC01EE5EFD4F33
:100B3000C591D49161110DC09FB7F8948C91209507
:100B400082238C938881282328839FBFDF91CF91B4
:100B50000895623051F49FB7F8943C91822F8095AC
:100B600083238C93E8812E2BEFCF8FB7F894EC91F1
:100B70002E2B2C938FBFEACF1F93CF93DF93182F89
:100B8000EB0161E00E948005209739F460E0812F3D
:100B9000DF91CF911F910C944004CF3FD10511F408
:100BA00061E0F5CFE12FF0E0EE52FD4FE491E1502E
:100BB000E23108F0B3C0F0E08827EE51FA4F8F4FD2
:100BC0000C94CF3BF405FC0501060B0615068E06BA
:100BD0001F0627062F06390643064D065C066606E5
:100BE0008E0670067A06840684B5806884BDC7BD0B
:100BF000DF91CF911F91089584B5806284BDC8BDF7
:100C0000F7CF80918000806880938000D093890026
:100C1000C0938800EDCF8091800080628093800037
:100C2000D0938B00C0938A00E3CF809180008860CE
:100C300080938000D0938D00C0938C00D9CF809199
:100C4000B00080688093B000C093B300D1CF809192
:100C5000B00080628093B000C093B400C9CF80918F
:100C60009000806880939000D0939900C093980082
:100C7000BFCF80919000806280939000D0939B00C2
:100C8000C0939A00B5CF80919000886080939000C7
:100C9000D0939D00C0939C00ABCF8091A000806852
:100CA0008093A0008091A0008F7B8093A000D093C0
:100CB000A900C093A8009CCF8091A000806280937F
:100CC000A000D093AB00C093AA0092CF8091A00067
:100CD00088608093A000D093AD00C093AC0088CF13
:100CE00080912001806880932001D0932901C093D6
:100CF00028017ECF80912001806280932001D093D3
:100D00002B01C0932A0174CF8091200188608093C9
:100D10002001D0932D01C0932C016ACFC038D1059A
:100D20000CF03ECF33CF3FB7F8948091D40690912A
:100D3000D506A091D606B091D70626B5A89B05C0CA
:100D40002F3F19F00196A11DB11D3FBFBA2FA92F4A
:100D5000982F8827BC01CD01620F711D811D911D47
:100D600042E0660F771F881F991F4A95D1F70895B3
:100D70008F929F92AF92BF92CF92DF92EF92FF92AB
:100D80004B015C010E9493066B017C010E9493065B
:100D90006C197D098E099F09683E73408105910594
:100DA000A8F321E0821A9108A108B10888EEC80EC4
:100DB00083E0D81EE11CF11C81149104A104B1044C
:100DC00029F7FF90EF90DF90CF90BF90AF909F906A
:100DD0008F9008952FB7F8946091D0067091D10646
:100DE0008091D2069091D3062FBF08950F931F9341
:100DF0000E94EA066093650970936609809367090B
:100E0000909368098DE599E00E94AC0297FF1DC0A0
:100E10000E94EA0600916509109166092091670910
:100E200030916809601B710B820B930B0091610973
:100E3000109162092091630930916409601771076C
:100E400082079307F8F28FEF9FEF1F910F9108959C
:100E50000895089508952091AC06260F3327331F77
:100E600021323105ECF420919608FC0190E080E0FD
:100E7000243069F082E00895A091AC062191AC0184
:100E80004457594FA40FB52FB11D2C9301968617C7
:100E900098F38091AC06680F6093AC0680E00895EB
:100EA00081E008951092960881E080939508109251
:100EB000700861E084E10E94400461E085E10E94E5
:100EC0004004E9EBF0E080818E7F808380818D7F1C
:100ED000808388E48093B80085E48093BC00089503
:100EE00010926F0810926E081092BD081092BC0804
:100EF0000E94520782EF91E090936D0880936C08F6
:100F000083EF91E090936B0880936A080895CF93E4
:100F1000DF9391E090938B068823B9F0C091B800DD
:100F2000D091BA008091BC008A7B8093BC0060E0C5
:100F300084E10E94400460E085E10E9440040E9438
:100F40005207D093BA00C093B800DF91CF910895B3
:100F50008F929F92AF92BF92CF92DF92EF92FF92C9
:100F60000F931F93CF93DF93D091BC08D13208F039
:100F7000D7C0182FC091BE080E9493066B017C0158
:100F80008091960881116BC082E08093960810933F
:100F900095088FEF8093940810929308D09392084D
:100FA000ACE9B8E0E2E7F8E080E0D81391C0109235
:100FB000710880917108CC0FC82BC0937108809183
:100FC0007008813009F088C0109270080E94930662
:100FD0006B017C01809171088093BB00809198081F
:100FE00090919908A0919A08B0919B08892B8A2B1F
:100FF0008B2BA1F00E9493060091980810919908FC
:1010000020919A0830919B086C197D098E099F09DF
:10101000061717072807390708F442C08091BC005B
:1010200083FDD8CF85EC8093BC000E9493066B01B2
:101030007C0180919608823009F450C08091940818
:101040008F3F09F46FC080919408803209F46CC01E
:1010500080919408803309F469C084E026C08091AF
:10106000980890919908A0919A08B0919B08892BB3
:101070008A2B8B2B09F484CF0E94930680909808CA
:1010800090909908A0909A08B0909B086C197D09DF
:101090008E099F0986169706A806B90608F070CF34
:1010A000809197080E94870785E01092BD081092F2
:1010B000BC081092BF08DF91CF911F910F91FF9054
:1010C000EF90DF90CF90BF90AF909F908F9008955A
:1010D0009D9191938F5F69CF85EEA5CF8091980800
:1010E00090919908A0919A08B0919B08892B8A2B1E
:1010F0008B2B09F49ECF0E949306009198081091C3
:10110000990820919A0830919B086C197D098E09E5
:101110009F09061717072807390708F08ACFC0CF9D
:1011200081E0C3CF80E0C1CF82E0BFCF83E0BDCFFD
:101130000895E0916F0880916E08E81730F4F0E0B0
:10114000E559F94F808190E008958FEF9FEF089562
:1011500090916F0880916E082FEF3FEF981748F439
:10116000E92FF0E0E559F94F208130E09F5F90933F
:101170006F08C901089580916E0890916F08891BCE
:10118000990B0895CF92DF92EF92FF920F931F93E6
:10119000CF93DF937C01CB018A012091BF082223EA
:1011A00089F0EB016B01C40ED51ECC15DD0569F08D
:1011B0006991D701ED91FC910190F081E02DC7017B
:1011C0001995F3CF642F0E942B07C801DF91CF91AF
:1011D0001F910F91FF90EF90DF90CF900895CF93E4
:1011E000DF931F92CDB7DEB769832091BF0822231A
:1011F000F9F02091BC08203258F021E030E0FC01E9
:101200003383228390E080E00F90DF91CF910895A7
:101210008091BD08E82FF0E0E456F74F9981908364
:101220008F5F8093BD088093BC0881E090E0ECCF95
:1012300061E0CE0101960E942B07F7CF81E00C946C
:10124000A8070F931F93CF93DF93082F162FC7E79D
:10125000DBE089810E94E801602F8FE59BE00E941E
:10126000EF08612F8FE59BE00E94EF088FE59BE080
:101270000E941E098883DF91CF911F910F910895DD
:10128000FF920F931F93CF93DF93F82E162F072F04
:10129000C7E7DBE089810E94E8016F2D8FE59BE0C5
:1012A0000E94EF08602F8FE59BE00E94EF08612FFE
:1012B0008FE59BE00E94EF088FE59BE00E941E09EE
:1012C0008883DF91CF911F910F91FF9008950F9325
:1012D0001F93CF93DF93082F162FCBE6DBE08B8194
:1012E0000E94E8018C819D81DC01ED91FC910190CF
:1012F000F081E02D602F19958C819D81DC01ED91AD
:10130000FC910190F081E02D612F19958C819D81D8
:101310000E941E0981E0DF91CF911F910F910895E6
:10132000AF92BF92CF92DF92EF92FF920F931F93F3
:10133000CF93DF936B017A01EC01C959D94F288112
:101340003CE0389F8001399F100D1124A090270B9D
:10135000B12C27FF1FC0FB011182108288818F5F93
:10136000888388819801280F311D87FD3A95F60101
:101370002A153B051CF488818C30C4F18081918151
:10138000049680349C4908F473C0F60180819181F1
:10139000049670C088819801280F311D87FD3A9509
:1013A0002A153B05DCF68881A801480F511D87FDF1
:1013B0005A95FA01EE0FFF1FE40FF51FE956F54F9E
:1013C000808187FFCBCF8881F801E80FF11D87FD71
:1013D000FA95CF01EE0FFF1FE80FF91FE956F54F01
:1013E000808160E08F770E944004B8CF8081918136
:1013F0002881A801420F511D27FD5A959A01FA0133
:10140000EE0FFF1FE20FF31FE956F54F21813281E6
:10141000820F931FF7019183808388819801280FA1
:10142000311D87FD3A95F901EE0FFF1FE20FF31F03
:10143000E956F54F808187FF22C08881080F111D72
:1014400087FD1A95F801EE0FFF1FE00FF11FE95617
:10145000F54F808161E08F77DF91CF911F910F91E0
:10146000FF90EF90DF90CF90BF90AF900C9440042E
:1014700080E49CE9F701918380838FEF8883DF917B
:10148000CF911F910F91FF90EF90DF90CF90BF9081
:10149000AF9008950F931F93CF93DF93362F272F8D
:1014A0006F3F710519F014F03FEF20E0032F122F6A
:1014B00001302FEF120714F401E01FEFFC0123812C
:1014C000348120173107D1F1EC0114830383161600
:1014D0001706A4F4818160E00E9440048FE090E050
:1014E0000197F1F7888161E00E9440048A81B80188
:1014F000DF91CF911F910F910C94BC05672B91F058
:10150000808160E00E9440048FE090E00197F1F755
:10151000898161E00E9440048A8166277727601BE9
:10152000710BE6CF818160E00E944004888160E019
:101530000E9440048A8170E060E0DACFDF91CF91B1
:101540001F910F91089590E080E0089586E20E9437
:10155000170418161906A4F48091F6059091F70562
:10156000A091F805B091F9050196A11DB11D8093D8
:10157000F6059093F705A093F805B093F905089543
:101580008091F6059091F705A091F805B091F905C5
:101590000197A109B109EBCF66E970E08AE59BE00C
:1015A0000E944A0A66E970E085E59BE00E944A0ACB
:1015B00066E970E080E59BE00E944A0A66E970E017
:1015C0008BE49BE00C944A0A6AE67FEF8AE59BE095
:1015D0000E944A0A6AE67FEF85E59BE00E944A0A7C
:1015E0006AE67FEF80E59BE00E944A0A6AE67FEFA9
:1015F0008BE49BE00C944A0A6AE67FEF8AE59BE065
:101600000E944A0A6AE67FEF85E59BE00E944A0A4B
:1016100066E970E080E59BE00E944A0A66E970E0B6
:101620008BE49BE00C944A0A66E970E08AE59BE053
:101630000E944A0A66E970E085E59BE00E944A0A3A
:101640006AE67FEF80E59BE00E944A0A6AE67FEF48
:101650008BE49BE00C944A0A70E060E08AE59BE032
:101660000E944A0A70E060E085E59BE00E944A0A19
:1016700070E060E080E59BE00E944A0A70E060E074
:101680008BE49BE00C944A0ADC01ED91FC91019003
:10169000F081E02D19940F931F93CF93DF93C82F00
:1016A000D42F02E41BE0D80112968C910E94E8012D
:1016B000C0686C2F70E0F801808191810E94440B1A
:1016C000D8018D919C91DC01ED91FC910190F0810C
:1016D000E02D6D2F1995F80180819181DF91CF91D7
:1016E0001F910F910C941E09CF938830B0F4C82F2E
:1016F00080E70E94E80161E070E002C0660F771F9A
:10170000CA95E2F78FE59BE00E94440B8FE59BE0D2
:101710000E941E0990E0CF910895FDCFCF93C82F6E
:1017200085E00E94740BC830A8F482E70E94E801AB
:1017300061E070E002C0660F771FCA95E2F78FE59F
:101740009BE00E94440B8FE59BE00E941E0990E005
:10175000CF910895FDCFCF92DF92EF92FF920F933A
:101760001F93CF93DF93D62FC42F0E9493066B0154
:101770007C0180919608811165C081E08093960874
:10178000809395089FEF90939408109293089C0F74
:10179000909392088093710880917108DD0FD82B87
:1017A000D093710880917008813009F07FC0109249
:1017B00070080E9493066B017C01809171088093F0
:1017C000BB008091980890919908A0919A08B091D7
:1017D0009B08892B8A2B8B2BA1F00E9493060091EA
:1017E00098081091990820919A0830919B086C19DB
:1017F0007D098E099F09061717072807390708F47E
:1018000042C08091BC0083FDD8CF85EC8093BC00A2
:101810000E9493066B017C0180919608813009F447
:1018200047C0809193088C1710F4C0919308A2E7E9
:10183000B8E0EBE6F6E080E08C1751F19D919193D2
:101840008F5FFACF8091980890919908A0919A089B
:10185000B0919B08892B8A2B8B2B09F48ACF0E948D
:101860009306009198081091990820919A08309158
:101870009B086C197D098E099F0906171707280711
:10188000390708F076CF809197080E948707C0E05B
:1018900010926F08C0936E088C2FDF91CF911F912B
:1018A0000F91FF90EF90DF90CF90089585EEAECF2F
:1018B0008091980890919908A0919A08B0919B08FE
:1018C000892B8A2B8B2B09F4A7CF0E9493060091BA
:1018D00098081091990820919A0830919B086C19EA
:1018E0007D098E099F09061717072807390708F091
:1018F00093CFC9CF1F93CF93DF93182FC7E7DBE0B8
:1019000089810E94E801612F8FE59BE00E94EF082A
:101910008FE59BE00E941E09888341E069818FE585
:101920009BE00E94AB0B8FE59BE00E94A808DF9133
:10193000CF911F910895CF93DF93EC0181E00E9436
:101940007A0C84FB992790F9988383FB992790F967
:101950009A8382FB992790F9998386FB992790F9BE
:101960009B83881F8827881F8C83DF91CF910895E0
:10197000682F616080E00E9421090E94EA0670934E
:101980007D0B60937C0B83E10E947A0C8770B9F425
:101990008091790B90917A0B892BA9F30E94EA062A
:1019A00020917C0B30917D0B621B730B8091790B26
:1019B00090917A0B8617970730F780E0089561E0E1
:1019C0008BE00E94210960E080E00E94210981E013
:1019D00008951F93CF93DF93182FC7E7DBE089812A
:1019E0000E94E801612F8FE59BE00E94EF088FE5E0
:1019F0009BE00E941E09888342E069818FE59BE09D
:101A00000E94AB0B8FE59BE00E94A808D82F80E0D6
:101A1000C82F8FE59BE00E94A8088C2B9D2BDF919F
:101A2000CF911F9108958F929F92AF92BF92EF92A4
:101A3000FF920F931F93CF93DF937C01EB0180E51F
:101A40000E947A0C8F5F880F90E09983888386E4E8
:101A50000E947A0C082F10E00F5F1F4F1D830C832C
:101A6000A881B0E020E03FE24AE350E00E944C3A17
:101A70006C507E4F8F4F9F4F38EE832E33E0932E66
:101A8000A12CB12CA50194010E945F3AD8010E94BB
:101A9000573A6C507E4F8F4F9F4FA50194010E9483
:101AA0005F3A2A873B874C875D8781E50E94E90C76
:101AB0008C01112702C0000F111F9A95E2F70F5FEA
:101AC0001F4F1F830E83A881B0E020E03FE24AE36E
:101AD00050E00E944C3A6C507E4F8F4F9F4FA501B3
:101AE00094010E945F3AD8010E944C3A6C507E4F9C
:101AF0008F4F9F4FA50194010E945F3A2E873F8729
:101B0000488B598B80E70E947A0C8F5F880F90E09A
:101B10009B838A8381E70E94E90C9C01992702C07C
:101B2000880F991F3A95E2F7019699878887F70100
:101B30002381222331F02E813F81821B930B9987D1
:101B40008887AA81B0E020E03FE24AE350E00E94AB
:101B50004C3A6C507E4F8F4F9F4F28EE822E23E0E1
:101B6000922EA12CB12CA50194010E945F3AA88568
:101B7000B9850E944C3A6C507E4F8F4F9F4FA50104
:101B800094010E945F3A2A8B3B8B4C8B5D8BDF91DB
:101B9000CF911F910F91FF90EF90BF90AF909F90CA
:101BA0008F900895CF93DF930E94EA0670937D0B88
:101BB00060937C0B83E10E947A0C8770F1F4809132
:101BC000790B90917A0B892BA9F30E94EA06209158
:101BD0007C0B30917D0B621B730B8091790B909184
:101BE0007A0B8617970730F781E080937B0BCFEF56
:101BF000DFEFCE01DF91CF9108958EE10E94E90CD5
:101C0000EC0161E08BE00E942109F3CF4F925F92DB
:101C10006F927F928F929F92AF92BF92CF92DF92FC
:101C2000EF92FF920F931F93CF93DF93CDB7DEB761
:101C3000A1970FB6F894DEBF0FBECDBF89E80E9412
:101C40007A0C682F616089E80E94210960E088E8C9
:101C50000E94210961E080E80E94210961E08FEF84
:101C60000E94210960E080E00E94210981E90E9430
:101C70007A0C80937E0B61E080E00E94210960E095
:101C80008FEF0E94210960E080E80E94210980E630
:101C90000E947A0C682F626180E60E94210960E24E
:101CA00070E084E40E9440096FEF81E00E94210906
:101CB00061E080E80E94210961E08FEF0E94210924
:101CC00060E080E00E94210966E08FEF0E94210918
:101CD00083E80E947A0C682F646083E80E942109DF
:101CE00067E08FEF0E94210961E081E80E942109ED
:101CF00061E080E80E9421096BE684E90E942109E5
:101D000060E083E80E9421090E94EA0670937D0B3F
:101D100060937C0B83E80E947A0C81112EC0809125
:101D2000790B90917A0B892BA9F30E94EA062091F6
:101D30007C0B30917D0B621B730B8091790B909122
:101D40007A0B8617970730F710E0812FA1960FB610
:101D5000F894DEBF0FBECDBFDF91CF911F910F91E1
:101D6000FF90EF90DF90CF90BF90AF909F908F90BB
:101D70007F906F905F904F90089561E083E80E949C
:101D8000210982E90E947A0C182F60E081E80E9404
:101D9000210966E08FEF0E94210983E80E947A0CF6
:101DA000682F6B7F83E80E94210961E08FEF0E941A
:101DB000210961E080E00E94210960E08FEF0E942C
:101DC000210960E080E80E9421098091780B0E943F
:101DD000E80160EB8FE59BE00E94EF088FE59BE058
:101DE0000E941E098093770B46E06091780B8FE587
:101DF0009BE00E94AB0B7E0127E1E20EF11C670124
:101E000007E0015041F08FE59BE00E94A808D60151
:101E10008D936D01F6CF61E08FEF0E94210960E0A4
:101E20008FE40E9421096CE28EE40E94210960E0A7
:101E30008FEF0E94210964EB86EB0E9421090CE0E0
:101E400017FF00E080E090E0E1E0F0E01F77492F2D
:101E500046954695469550E09701240F351FD901C8
:101E60002C91692F6770901710F0181324C04E0D35
:101E70005F1DDF0102C0AA0FBB1F6A95E2F7BD011B
:101E800060952623DA012C939F5F903301F78091B0
:101E9000780B0E94E80160EB8FE59BE00E94EF0861
:101EA00017E0115091F0F70161917F018FE59BE000
:101EB0000E94EF08F6CF30E002C0359527956A956D
:101EC000E2F720FFE1CF8F5FDFCF8FE59BE00E943D
:101ED0001E098093770B61E08FEF0E94210960E07B
:101EE00080E00E94210960E08FEF0E94210960E0FC
:101EF00089E00E94210960E080E10E94210960E000
:101F000081E10E94210961E084E20E9421096FEFD2
:101F100085E20E94210960E085E70E94210961E0D5
:101F20008FEF0E9421096CE28EE40E94210960E09B
:101F300088E40E94210960E280E30E94210960E0B8
:101F40008FEF0E94210969E080E30E94210960E08F
:101F500084E50E94210964E081E30E94210963E095
:101F600082E30E94210963E880E40E94210965E27E
:101F700086E40E94210960E080E60E94210960E079
:101F800087E20E94210966E080E50E94210960E065
:101F900081E50E94210966E982E50E94210968E045
:101FA00086E50E94210960E387E50E94210960E03F
:101FB00081E60E94210960E082E60E94210960E03A
:101FC00084E60E94210960E085E60E94210960EA1A
:101FD00086E60E94210961E08FEF0E94210962E3F9
:101FE00082E20E94210964E187E40E9421096FEFE7
:101FF00089E40E94210960E08AE40E94210960E0EE
:102000008FEF0E9421096AE08AE70E94210960E0BF
:102010008BE70E94210961E288E70E94210961E0C3
:102020008FEF0E94210964E383E20E94210960E0AE
:1020300082E40E9421096FEF84E40E94210966E294
:1020400085E40E94210965E086E40E94210960E49C
:1020500080E40E94210966E08EE00E9421096AE185
:1020600080E20E94210960E483E40E94210960E08B
:102070008FEF0E94210963E084E30E94210964E458
:1020800085E30E94210961E08FEF0E94210964E04D
:1020900081E30E94210969E08BE40E94210965E047
:1020A0008CE40E94210964E08DE40E94210960E033
:1020B0008FEF0E94210960E084E40E94210960E220
:1020C00085E40E94210968E087E40E94210968E212
:1020D00088E40E94210960E087E60E94210964E00B
:1020E00080E70E94210961E081E70E9421096EEFEB
:1020F00082E70E94210960E086E70E94210960E0F2
:1021000087E70E94210961E08FEF0E94210961E0C9
:102110008DE00E94210960E08FEF0E94210961E0BB
:1021200080E80E94210968EF81E00E94210961E0B6
:102130008FEF0E94210961E08EE80E94210961E091
:1021400080E00E94210960E08FEF0E94210960E099
:1021500080E80E94210964E08AE00E94210984E865
:102160000E947A0C682F6F7E84E80E94210961E04A
:102170008BE00E942109CE014D960E949B0CBE016E
:102180006F5F7F4FCE014D960E94130D8D8D88237A
:1021900009F4FBC08B859C85AD85BE858C57924F1D
:1021A000AF4FBF4F2F8D222309F4F4C04B855C85C0
:1021B0006D857E854E545D4F6F4F7F4F440F551F89
:1021C000661F771F840F951FA61FB71F28A1222304
:1021D00061F04F85588969897A894C565D4F6F4FF8
:1021E0007F4F840F951FA61FB71F29A1222361F0DF
:1021F0004B895C896D897E894A5D5D4F6F4F7F4F4A
:10220000840F951FA61FB71F80937F0B9093800BA1
:10221000A093810BB093820B68EE81E00E942109AC
:10222000C0907F0BD090800BE090810BF090820BE0
:10223000F0E2CF16FEE4DF06E104F10408F4D8C0B2
:10224000CE014D960E949B0CBE016F5F7F4FCE0169
:102250004D960E94130D8D8D882309F4A8C08B859F
:102260009C85AD85BE858C57924FAF4FBF4F2F8D4C
:10227000222309F4A1C04B855C856D857E854E5473
:102280005D4F6F4F7F4F440F551F661F771F840FA1
:10229000951FA61FB71F18A1112361F04F855889FC
:1022A00069897A894C565D4F6F4F7F4F840F951F18
:1022B000A61FB71F29A1222309F49AC02C013D01B2
:1022C00026E2420E22E0521E611C711CC414D50489
:1022D000E604F70408F48CC0AB81B0E020E03FE2F4
:1022E0004AE350E00E944C3A4B015C01A4EF8A0E95
:1022F000A1E09A1EA11CB11CA70196012419350961
:1023000046095709A8EEB3E00E944C3A2B013C0164
:10231000C501B40120ED37E040E050E00E945F3A93
:10232000420E531E641E751EC501B40128EE33E033
:1023300040E050E00E945F3AC301B2010E945F3A60
:10234000112331F08F819885280F391F411D511DB0
:1023500070E060E02115310541055105F1F1890179
:102360009A01015011092109310970E060E0D90199
:10237000C8018827892B8A2B8B2B59F136952795F5
:10238000179507956F5F7F4FF2CF86E39BE0A0E044
:10239000B0E008CF2E8D222309F418CF4B855C8541
:1023A0006D857E854C565D4F6F4F7F4F0BCF86E31B
:1023B0009BE0A0E0B0E05BCF2E8D222309F46BCF31
:1023C0004B855C856D857E854C565D4F6F4F7F4F8D
:1023D0005ECF762F6627602B712B81E70E94400924
:1023E000C0927F0BD092800BE092810BF092820B17
:1023F00061E081E00E94210980E40E94B80C8823FA
:1024000009F4A2CC62E081E00E94210980E00E94F0
:10241000B80C182F882309F497CC68EE81E00E944D
:10242000210993CCCF93DF9380914A0B0E94E8015E
:1024300067E08FE59BE00E94EF0880E00E94A8071C
:1024400043E060914A0B8FE59BE00E94AB0B8FE568
:102450009BE00E94A808EC018FE59BE00E94A80881
:1024600060E0C62BD82B8FE59BE00E94A808BE0138
:1024700090E080E00E940E392AE037ED43EA5CE309
:102480000E946F3923E333E948E853E40E94903A0D
:1024900020E030E040E151E40E946F3920E030E07C
:1024A00040EA50E40E94FD3A20E030E040E052E48F
:1024B0000E94913ADF91CF910895CF93DF930E94CC
:1024C00070078091440B0E94E80162E970E08091FE
:1024D000420B9091430B0E94440B8091420B9091D0
:1024E000430B0E941E0941E06091440B8091420B16
:1024F0009091430B0E94AB0B8091420B9091430B48
:10250000DC01ED91FC910284F385E02D1995843472
:1025100019F0803109F079C081E08093450BC091BA
:10252000480BD091490BAE0170E060E00E944B0B6C
:10253000D093490BC093480BC091460BD091470BE9
:102540008091450B81110BC089E28093440B8FE58C
:102550009BE09093430B8093420B0E945D12AE016F
:1025600070E060E08FE00E944B0BD093470BC0936C
:10257000460B41E050E060E070E080E00E944B0BD1
:1025800063E070E080E090E00E94B80643E050E035
:1025900060E070E080E00E944B0B8091480B9091CE
:1025A000490B853D910511F138F4009749F1803CC4
:1025B000910509F181E02AC0863F910591F08F3F96
:1025C000910541F08B3E9105A9F762E370E080E050
:1025D00090E004C063E070E080E090E00E94B80604
:1025E000E9CF68E170E080E090E0F8CF65E670E068
:1025F00080E090E0F3CF6AE970E080E090E0EECF19
:102600006CEB72E080E090E0E9CF80E0DF91CF9169
:102610000895CF93DF93CBE6DBE08B810E94E80146
:102620008C819D81DC01ED91FC910190F081E02D88
:1026300060E019958C819D810E941E0941E06B81AB
:102640008C819D810E94AB0B8C819D81DC01ED9181
:10265000FC910284F385E02D1995DF91CF910895C7
:102660000F931F93CF93DF93182FC2E4DBE08A818F
:102670000E94E8011068612F70E0888199810E94B2
:10268000440B888199810E941E0942E06A818881F9
:1026900099810E94AB0B88819981DC01ED91FC91BD
:1026A0000284F385E02D19958C0188819981DC01E4
:1026B000ED91FC910284F385E02D199520E0382FEF
:1026C000C801822B932BDF91CF911F910F91089519
:1026D0002F923F924F925F926F927F928F929F9232
:1026E000AF92BF92CF92DF92EF92FF920F931F9320
:1026F000CF93DF934C015B011A018091450B81114F
:102700000BC089E28093440B8FE59BE09093430BD1
:102710008093420B0E945D1284E10E943013EC0111
:1027200086E10E9430136C0188E10E9430137C0125
:102730008AE10E9430138C018091480B9091490BE3
:10274000853D910509F447C060F5009709F44DC037
:10275000803C910509F444C0209709F04BC0F10179
:102760001082118212821382F5011082118212826C
:102770001382F4011082118212821382DF91CF91B1
:102780001F910F91FF90EF90DF90CF90BF90AF908F
:102790009F908F907F906F905F904F903F902F9081
:1027A0000895863F910591F08F3F910541F08B3E52
:1027B000910591F662E370E080E090E004C063E090
:1027C00070E080E090E00E94B806C6CF68E170E05B
:1027D00080E090E0F8CF65E670E080E090E0F3CF35
:1027E0006AE970E080E090E0EECF6CEB72E080E0B0
:1027F00090E0E9CFBE0190E080E00E940E392B010D
:102800003C01B60190E080E00E940E39A3019201E4
:102810000E94FD3A20E030E04FE753E40E946F3918
:10282000F4016083718382839383B70190E080E039
:102830000E940E39A30192010E94FD3A20E030E08F
:102840004FE753E40E946F39F501608371838283FF
:102850009383B80190E080E00E940E39A3019201B9
:102860000E94FD3A20E030E04FE753E40E946F39C8
:10287000F101608371838283938380CFFC01019097
:102880000020E9F73197AF01481B590BBC018AEFD3
:1028900099E00C9457028AE892E00C943E14CF938E
:1028A000DF93FC0144815581608171818AEF99E059
:1028B0000E945702EC010E944B148C0F9D1FDF9168
:1028C000CF9108958F929F92AF92BF920F931F93D3
:1028D000CF93DF93CDB7DEB7A1970FB6F894DEBFE5
:1028E0000FBECDBF19A2423008F44AE08E010F5D41
:1028F0001F4F842E912CB12CA12CA50194010E9474
:102900005F3AE62FB901CA01EA30F4F4E05DD8017C
:10291000EE938D01232B242B252B79F790E080E07B
:10292000109719F0CD010E943E14A1960FB6F894AD
:10293000DEBF0FBECDBFDF91CF911F910F91BF9032
:10294000AF909F908F900895E95CE1CFCF92DF9296
:10295000EF92FF92CF93DF9397FF1BC06B017C0137
:102960006DE28AEF99E00E941A03EC01662777274F
:10297000CB016C197D098E099F094AE00E946214FF
:102980008C0F9D1FDF91CF91FF90EF90DF90CF9044
:1029900008954AE0DF91CF91FF90EF90DF90CF90C4
:1029A0000C946214CF93DF93BC01990F880B990BA1
:1029B0000E94A614EC010E944B148C0F9D1FDF9106
:1029C000CF910895CF93DF93682F70E090E080E07F
:1029D0004AE00E946214EC010E944B148C0F9D1F70
:1029E000DF91CF910895CF93DF930E943E14EC01C5
:1029F0000E944B148C0F9D1FDF91CF9108952F9251
:102A00003F924F925F926F927F928F929F92AF927E
:102A1000BF92CF92DF92EF92FF920F931F93CF93CB
:102A2000DF937C016B0161E08BE00E94400468E869
:102A300073E180E090E00E94B80660E08BE00E94C5
:102A400040048DE892E00E94F314C7010E94D21462
:102A5000C6010E94D2148091830B803308F052C0CB
:102A600061E08CE00E9480058091830B282F30E08C
:102A7000F901EE0FFF1FE20FF31FE956F54F9081AA
:102A800090789C6090831092840B1092850B2CE0C0
:102A9000622F0E94AF3B829FB001112430E020E002
:102AA000AB01420F531FFA01EE0FFF1FE40FF51F9A
:102AB000E956F54F908197FD17C02F5F3F4F2C309F
:102AC000310571F7813009F091C01092800082E0E9
:102AD000809381001092850010928400B19A8091B9
:102AE0006F00826080936F00E091830B8E2F90E0E7
:102AF000FC01EE0FFF1FE80FF91FE956F54F80812B
:102B0000806880838AE590E00E94F40168EE73E0BB
:102B100080E090E00E94B806D0E0C0E066246394B4
:102B2000712C44E0842E912C5AE0A52EB12C709289
:102B3000290B6092280B0FE010E00115110509F434
:102B400095C00E94930620913E0B30913F0B40911F
:102B5000400B5091410B1B012C01221A330A440AED
:102B6000550A20912A0B30912B0B40912C0B509140
:102B70002D0B2216330644065506F8F260933E0BE1
:102B800070933F0B8093400B9093410B8091320BDD
:102B90009091330B2091280B3091290B2130310576
:102BA00009F050C001969093330B8093320B209123
:102BB0002E0B30912F0B8217930721F41092330BB9
:102BC0001092320B015011098091320B9091330B0E
:102BD0002091300B3091310BB5012530310509F0D2
:102BE000B4010E94BB3B0E946E04A7CF823061F407
:102BF0001092900080939100109295001092940092
:102C000088BB8093710070CF833069F41092A0006C
:102C100082E08093A1001092A5001092A40089BBCD
:102C20008093720061CF81115FCF1092200182E00A
:102C30008093210110922501109224018ABB809378
:102C4000730052CF892B41F480912E0B90912F0B62
:102C50009093330B8093320B8091320B9091330B16
:102C600001979093330B8093320BACCF64EF71E0FC
:102C700080E090E00E94B80681E0C816D10409F017
:102C800044C064EF71E080E090E00E94B80688E9FB
:102C900092E00E94F3148EE190E00E94F4016EEE47
:102CA00072E080E090E00E94B8068AE590E00E9421
:102CB000F40164EF71E080E090E00E94B806219694
:102CC000EC16FD0609F033CFE091830B8E2F90E0D8
:102CD000FC01EE0FFF1FE80FF91FE956F54F808149
:102CE0008F778083DF91CF911F910F91FF90EF90AD
:102CF000DF90CF90BF90AF909F908F907F906F901C
:102D00005F904F903F902F90089564EF71E080E0C6
:102D100090E00E94B8068DE992E00E94F31482E8E8
:102D200090E0BBCF0E94F3146AE070E080E090E096
:102D30000C94B8060C943E14CF93DF9383EA92E090
:102D40000E94F3148DEA92E00E949A168091D806B0
:102D50009091D9060E94D21484EB92E00E94F31461
:102D600081E00E948E0B0E94D2140E94D20DEC01D1
:102D700084E00E948E0B0E94D2140E94D20DC436B1
:102D8000D1051CF58436910504F580EC92E00E9493
:102D9000F3148091D8069091D906009709F04FC19D
:102DA000809126029091270224E1289FF001299F1B
:102DB000F00D11248091240290912502E80FF91F53
:102DC000E652F94F8081816080838BEC92E00E9413
:102DD000F3146AE070E080E090E00E94B80682E0C0
:102DE0000E948E0B0E94D2140E94D20DEC0185E04D
:102DF0000E948E0B0E94D2140E94D20DCC32D14080
:102E00000CF044C08C3291400CF040C089ED92E04F
:102E10000E94F3148091D8069091D90601969C01E6
:102E200023703327232BA9F4209126023091270207
:102E300044E1429FF001439FF00D112420912402B0
:102E400030912502E20FF31FE652F94F20812160F5
:102E5000208364E070E00E94BB3B8130910509F063
:102E600036C1809126029091270224E1289FF0012B
:102E7000299FF00D11248091240290912502E80FE2
:102E8000F91FE652F94F8081826080838BEC92E0DB
:102E90000E94F3146AE070E080E090E00E94B806BF
:102EA00083E00E948E0B0E94D2140E94D20DEC018E
:102EB00086E00E948E0B0E94D2140E94D20DCC326A
:102EC000D140DCF58C329140C4F584EE92E00E9452
:102ED000F3148091D8069091D9060396AC01437003
:102EE0005527C0912602D0912702209124023091CB
:102EF0002502452B69F444E14C9FD0014D9FB00D54
:102F00001124A20FB31FA652B94F4C9141604C93AC
:102F100064E070E00E94BB3B8130910509F007C17D
:102F200084E18C9FF0018D9FF00D1124E20FF31FBF
:102F3000E652F94F808182608083809126029091D1
:102F40002702C4E1C89FF001C99FF00D11248091B0
:102F5000240290912502E80FF91FE652F94F808173
:102F6000806180838EEE92E00E94F3146AE070E04C
:102F700080E090E00E94B8060E944B1488E093E045
:102F80000E94F3148091260290912702C89FF001BD
:102F9000C99FF00D11248091240290912502E80F21
:102FA000F91FE652F94F808181700E94E2148091EE
:102FB000260290912702C89FF001C99FF00D1124AD
:102FC0008091240290912502E80FF91FE652F94FF3
:102FD0008081869581700E94E214809126029091F2
:102FE0002702C89FF001C99FF00D1124809124028F
:102FF00090912502E80FF91FE652F94F808182FB7C
:10300000882780F90E94E21480912602909127027D
:10301000C89FF001C99FF00D112480912402909166
:103020002502E80FF91FE652F94F808183FB8827BC
:1030300080F90E94E214DF91CF910C944B148130FF
:103040009105A9F4809126029091270224E1289FFE
:10305000F001299FF00D1124809124029091250206
:10306000E80FF91FE652F94F80818260ADCE8230C1
:103070009105A9F4809126029091270224E1289FCE
:10308000F001299FF00D11248091240290912502D6
:10309000E80FF91FE652F94F8081846095CE0397BF
:1030A00009F093CE809126029091270224E1289F77
:1030B000F001299FF00D11248091240290912502A6
:1030C000E80FF91FE652F94F808188607DCE82308B
:1030D0009105A9F4809126029091270224E1289F6E
:1030E000F001299FF00D1124809124029091250276
:1030F000E80FF91FE652F94F80818460C6CE03972E
:1031000009F0C4CE809126029091270224E1289FE5
:10311000F001299FF00D1124809124029091250245
:10312000E80FF91FE652F94F80818860AECE8230F9
:10313000910569F484E18C9FF0018D9FF00D1124BD
:10314000E20FF31FE652F94F80818460F5CE0397BA
:1031500009F0F3CE84E18C9FF0018D9FF00D1124D6
:10316000E20FF31FE652F94F80818860E5CE4F925F
:103170005F926F927F928F929F92AF92BF92CF9207
:10318000DF92EF92FF926B017C01AC019B010E94E8
:10319000AA3B8823B1F080E193E00E943E147C01B9
:1031A0000E944B148E0D9F1DFF90EF90DF90CF90EB
:1031B000BF90AF909F908F907F906F905F904F9057
:1031C000089546015701E894B7F82FEF3FEF4FE716
:1031D0005FE7C501B4010E94AA3B81110DC02FEF2A
:1031E0003FEF4FE75FE7C501B4010E9409391816A8
:1031F0001CF484E193E0D1CF2FEF3FEF4FE75FE482
:10320000C701B6010E94A53B18161CF488E193E0A3
:10321000C4CF2FEF3FEF4FE75FECC701B6010E942D
:10322000093987FDF3CF20E030E0A901C701B601DD
:103230000E940939B12CA12C87FF0AC06DE28AEFE8
:1032400099E00E941A035C01F7FAF094F7F8F09401
:103250002AE037ED43EA5BE3C701B6010E94913AE9
:103260002B013C010E94763B6B017C010E940E39D0
:103270009B01AC01C301B2010E94903A2B013C01B9
:103280004AE0C701B6010E9462147C01EA0CFB1CF3
:103290006EE28AEF99E00E941A03E80EF91E20E020
:1032A00030E040E251E4C301B2010E946F392B01CA
:1032B0003C010E94763B4B01B12CA12C4AE0C50198
:1032C000B4010E946214E80EF91EC501B4010E9407
:1032D0000E399B01AC01C301B2010E94903A20E07B
:1032E00030E040E251E40E946F390E94763B90E06A
:1032F00080E04AE00E946214E80EF91E51CF8F92DE
:103300009F92AF92BF92EF92FF920F931F93CF9332
:10331000DF938CE193E00E94F31482E00E948E0B15
:103320000E94D20DEC0183E00E948E0B0E94D20D10
:103330008C010A5B1F4F85E00E948E0B0E94D20D0C
:103340007C0186E00E948E0B0E94D20D9E012E19F8
:103350003F092B5B3F4F2B38310520F4CC3221E065
:10336000D20714F0CFEFDFEF9801281B390BC9010A
:103370008B5B9F4F8B38910508F078C40C3231E09D
:1033800013070CF073C4CF3FDC0709F473C40F3F7D
:10339000100709F078C587E293E00E94F31482E0F9
:1033A0000E948E0B0E94D20DEC0185E00E948E0BD4
:1033B0000E94D20D8C01BE010D2E000C880B990BC2
:1033C0000E9410392DEC3CEC4CEC5CE30E946F3910
:1033D0004B015C018CE695E00E949A16C501B40190
:1033E0000E94B7187801EC1AFD0AB701F7FE04C075
:1033F000662777276E197F09072E000C880B990B1B
:103400000E941039A50194010E94A53B18160CF0EA
:10341000B0C135E4E30EF11C8BE8E816F10408F0C6
:10342000A8C17801EC1AFD0AB7010F2C000C880B1B
:10343000990B0E941039A50194010E94A53B181612
:103440002CF526E4E216F1040CF585E493E00E94E5
:10345000F3140E94E40A82E00E948E0B0E94D20DB7
:10346000EC018DE593E00E949A16CE010E94D214E1
:1034700085E00E948E0B0E94D20D8C0185E693E0C0
:103480000E949A16C8010E94D214CBCF0E942C0B26
:103490007E01E01AF10AB7010F2C000C880B990B82
:1034A0000E941039A50194010E94A53B18162CF525
:1034B00036E4E316F1040CF58EE693E00E94F31473
:1034C0000E94CC0A82E00E948E0B0E94D20DEC0179
:1034D0008DE593E00E949A16CE010E94D21485E0F9
:1034E0000E948E0B0E94D20D8C0185E693E00E9413
:1034F0009A16C8010E94D214CBCF0E942C0B72CF17
:103500000E942C0B7801EC1AFD0ABE01601B710BA6
:10351000072E000C880B990B0E941039A50194010D
:103520000E94A53B18163CF586E4E816F1041CF54C
:1035300083EA93E00E94F3140E94E40A83E00E946D
:103540008E0B0E94D20DEC01CA5BDF4F8DE593E03C
:103550000E949A16CE010E94D21486E00E948E0B21
:103560000E94D20D8C0185E693E00E949A16C80154
:103570000E94D214C7CF0E942C0BA9C387E293E00C
:103580000E94F31482E00E948E0B0E94D20DEC0187
:1035900085E00E948E0B0E94D20D8C01BE010D2E83
:1035A000000C880B990B0E9410392DEC3CEC4CEC74
:1035B0005CE30E946F394B015C018CE695E00E9450
:1035C0009A16C501B4010E94B7187801EC1AFD0AD9
:1035D000B701F7FE04C0662777276E197F09072E0B
:1035E000000C880B990B0E941039A50194010E94D0
:1035F000A53B18160CF0B5C025E4E20EF11C3BE823
:10360000E316F10408F0ADC07801EC1AFD0AB70129
:103610000F2C000C880B990B0E941039A501940106
:103620000E94A53B18162CF586E4E816F1040CF56B
:1036300085E493E00E94F3140E94E40A82E00E9471
:103640008E0B0E94D20DEC018DE593E00E949A163C
:10365000CE010E94D21485E00E948E0B0E94D20DF2
:103660008C0185E693E00E949A16C8010E94D2144C
:10367000CBCF0E942C0B7E01E01AF10AB7010F2C70
:10368000000C880B990B0E941039A50194010E942F
:10369000A53B18162CF526E4E216F1040CF58EE68F
:1036A00093E00E94F3140E94CC0A82E00E948E0BE9
:1036B0000E94D20DEC018DE593E00E949A16CE0196
:1036C0000E94D21485E00E948E0B0E94D20D8C01C4
:1036D00085E693E00E949A16C8010E94D214CBCFCF
:1036E0000E942C0B72CF0E942C0B7801EC1AFD0A61
:1036F000BE01601B710B072E000C880B990B0E94FA
:103700001039A50194010E94A53B18163CF536E43A
:10371000E316F1041CF583EA93E00E94F3140E947F
:10372000E40A83E00E948E0B0E94D20DEC01CA5B7A
:10373000DF4F8DE593E00E949A16CE010E94D214CD
:1037400086E00E948E0B0E94D20D8C0185E693E0EC
:103750000E949A16C8010E94D214C7CF0E942C0B57
:10376000BFC30E942C0B64EF71E080E090E00E94E8
:10377000B80664EF71E080E090E00E94B80681E056
:103780000E948E0B0E94D20DC29740F40E94D20D6F
:103790008436910518F40E94FC0AF8CF84E00E9458
:1037A0008E0B8BEB93E00E949A160E94D20DBC0107
:1037B00090E080E04AE00E9462140E944B140E9454
:1037C000D20D8F3A910540F40E94D20D85369105B5
:1037D00018F00E94140BF8CF0E942C0B82E00E947C
:1037E0008E0B0E94D20D8C0183E00E948E0B0E94F2
:1037F000D20DEC01CA5BDF4F85E00E948E0B0E9468
:10380000D20D5C0186E00E948E0B0E94D20D7C01DD
:10381000C8010E94D214CE010E94D214C5010E9498
:10382000D214C7010E94D214C8018A199B098B5B6C
:103830009F4F8B38910520F40C3281E0180714F06B
:103840000FEF1FEFCE018E199F098B5B9F4F8B38B7
:10385000910520F4CC3221E0D20714F0CFEFDFEF56
:10386000C8010E94D214CE010E94D2140F3F10074B
:1038700009F485C2CF3FDC0709F08AC387E293E0F1
:103880000E94F31482E00E948E0B0E94D20DEC0184
:1038900085E00E948E0B0E94D20D8C01BE010D2E80
:1038A000000C880B990B0E9410392DEC3CEC4CEC71
:1038B0005CE30E946F394B015C018CE695E00E944D
:1038C0009A16C501B4010E94B7187801EC1AFD0AD6
:1038D000B701F7FE04C0662777276E197F09072E08
:1038E000000C880B990B0E941039A50194010E94CD
:1038F000A53B18160CF0D1C325E4E20EF11C3BE801
:10390000E316F10408F0C9C37801EC1AFD0AB70107
:103910000F2C000C880B990B0E941039A501940103
:103920000E94A53B18162CF586E4E816F1040CF568
:1039300085E493E00E94F3140E94E40A82E00E946E
:103940008E0B0E94D20DEC018DE593E00E949A1639
:10395000CE010E94D21485E00E948E0B0E94D20DEF
:103960008C0185E693E00E949A16C8010E94D21449
:10397000CBCF0E942C0B7E01E01AF10AB7010F2C6D
:10398000000C880B990B0E941039A50194010E942C
:10399000A53B18162CF526E4E216F1040CF58EE68C
:1039A00093E00E94F3140E94CC0A82E00E948E0BE6
:1039B0000E94D20DEC018DE593E00E949A16CE0193
:1039C0000E94D21485E00E948E0B0E94D20D8C01C1
:1039D00085E693E00E949A16C8010E94D214CBCFCC
:1039E0000E942C0B72CF0E942C0B7801EC1AFD0A5E
:1039F000BE01601B710B072E000C880B990B0E94F7
:103A00001039A50194010E94A53B18163CF536E437
:103A1000E316F1041CF583EA93E00E94F3140E947C
:103A2000E40A83E00E948E0B0E94D20DEC01CA5B77
:103A3000DF4F8DE593E00E949A16CE010E94D214CA
:103A400086E00E948E0B0E94D20D8C0185E693E0E9
:103A50000E949A16C8010E94D214C7CF0E942C0B54
:103A6000BAC187E293E00E94F31482E00E948E0BB9
:103A70000E94D20DEC0185E00E948E0B0E94D20DB7
:103A80008C01BE010D2E000C880B990B0E94103981
:103A90002DEC3CEC4CEC5CE30E946F394B015C017B
:103AA0008CE695E00E949A16C501B4010E94B718F1
:103AB0007801EC1AFD0AB701F7FE04C066277727E4
:103AC0006E197F09072E000C880B990B0E94103984
:103AD000A50194010E94A53B18160CF0B5C085E421
:103AE000E80EF11C2BE8E216F10408F0ADC07801F5
:103AF000EC1AFD0AB7010F2C000C880B990B0E94E1
:103B00001039A50194010E94A53B18162CF536E446
:103B1000E316F1040CF585E493E00E94F3140E948F
:103B2000E40A82E00E948E0B0E94D20DEC018DE52A
:103B300093E00E949A16CE010E94D21485E00E9462
:103B40008E0B0E94D20D8C0185E693E00E949A169E
:103B5000C8010E94D214CBCF0E942C0B7E01E01A28
:103B6000F10AB7010F2C000C880B990B0E94103939
:103B7000A50194010E94A53B18162CF586E4E816D1
:103B8000F1040CF58EE693E00E94F3140E94CC0A37
:103B900082E00E948E0B0E94D20DEC018DE593E035
:103BA0000E949A16CE010E94D21485E00E948E0BCC
:103BB0000E94D20D8C0185E693E00E949A16C801FE
:103BC0000E94D214CBCF0E942C0B72CF0E942C0BE0
:103BD0007801EC1AFD0ABE01601B710B072E000C68
:103BE000880B990B0E941039A50194010E94A53BF6
:103BF00018163CF526E4E216F1041CF583EA93E07E
:103C00000E94F3140E94E40A83E00E948E0B0E943B
:103C1000D20DEC01CA5BDF4F8DE593E00E949A164E
:103C2000CE010E94D21486E00E948E0B0E94D20D1B
:103C30008C0185E693E00E949A16C8010E94D21476
:103C4000C7CF0E942C0BD1C10E942C0B64EF71E0F6
:103C500080E090E0DF91CF911F910F91FF90EF9066
:103C6000BF90AF909F908F900C94B806219609F466
:103C700080CD91CB0F3F1F4F09F47BCD86E893E0B9
:103C80000E94F31483E00E948E0B0E94D20DEC017F
:103C9000CA5BDF4F86E00E948E0B0E94D20D8C0122
:103CA000BE010D2E000C880B990B0E9410392DECD3
:103CB0003CEC4CEC5CE30E946F394B015C018CE600
:103CC00095E00E949A16C501B4010E94B7187801C8
:103CD000EC1AFD0AB701F7FE04C0662777276E19B4
:103CE0007F09072E000C880B990B0E941039A50143
:103CF00094010E94A53B18160CF03BCD85E4E80E1C
:103D0000F11C2BE8E216F10408F033CD7801EC1A2F
:103D1000FD0AB7010F2C000C880B990B0E9410397B
:103D2000A50194010E94A53B18160CF0E9CB36E4DE
:103D3000E316F1040CF0E4CB85E493E00E94F31465
:103D40000E94CC0A83E00E948E0B0E94D20DEC01EF
:103D5000CA5BDF4F8DE593E00E949A16CE010E9468
:103D6000D21486E00E948E0B0E94D20D8C0185E653
:103D700093E00E949A16C8010E94D214C7CF2196E0
:103D800009F48BC186E893E00E94F31483E00E945B
:103D90008E0B0E94D20DEC01CA5BDF4F86E00E94C1
:103DA0008E0B0E94D20D8C01BE010D2E000C880BD3
:103DB000990B0E9410392DEC3CEC4CEC5CE30E941A
:103DC0006F394B015C018CE695E00E949A16C501A3
:103DD000B4010E94B7187801EC1AFD0AB701F7FE8A
:103DE00004C0662777276E197F09072E000C880B01
:103DF000990B0E941039A50194010E94A53B181649
:103E00000CF04BC135E4E30EF11C8BE8E816F1042D
:103E100008F043C17801EC1AFD0AB7010F2C000C21
:103E2000880B990B0E941039A50194010E94A53BB3
:103E300018160CF0D8CD26E4E216F1040CF0D3CD20
:103E400085E493E00E94F3140E94CC0A83E00E9470
:103E50008E0B0E94D20DEC01CA5BDF4F8DE593E023
:103E60000E949A16CE010E94D21486E00E948E0B08
:103E70000E94D20D8C0185E693E00E949A16C8013B
:103E80000E94D214C7CFC017D1070CF477CB86E8B5
:103E900093E00E94F31483E00E948E0B0E94D20DE7
:103EA000EC01CA5BDF4F86E00E948E0B0E94D20DB0
:103EB0008C01BE010D2E000C880B990B0E9410394D
:103EC0002DEC3CEC4CEC5CE30E946F394B015C0147
:103ED0008CE695E00E949A16C501B4010E94B718BD
:103EE0007801EC1AFD0AB701F7FE04C066277727B0
:103EF0006E197F09072E000C880B990B0E94103950
:103F0000A50194010E94A53B18160CF02ACC35E4BB
:103F1000E30EF11C8BE8E816F10408F022CC7801DE
:103F2000EC1AFD0AB7010F2C000C880B990B0E94AC
:103F30001039A50194010E94A53B18160CF0D3CBB3
:103F400026E4E216F1040CF0CECB85E493E00E9467
:103F5000F3140E94CC0A83E00E948E0B0E94D20DC3
:103F6000EC01CA5BDF4F8DE593E00E949A16CE010B
:103F70000E94D21486E00E948E0B0E94D20D8C010A
:103F800085E693E00E949A16C8010E94D214C7CF1A
:103F90000C171D070CF465CD86E893E00E94F3141E
:103FA00083E00E948E0B0E94D20DEC01CA5BDF4FB2
:103FB00086E00E948E0B0E94D20D8C01BE010D2E58
:103FC000000C880B990B0E9410392DEC3CEC4CEC4A
:103FD0005CE30E946F394B015C018CE695E00E9426
:103FE0009A16C501B4010E94B7187801EC1AFD0AAF
:103FF000B701F7FE04C0662777276E197F09072EE1
:10400000000C880B990B0E941039A50194010E94A5
:10401000A53B18160CF018CE25E4E20EF11C3BE887
:10402000E316F10408F010CE7801EC1AFD0AB7018E
:104030000F2C000C880B990B0E941039A5019401DC
:104040000E94A53B18160CF0C1CD86E4E816F104D9
:104050000CF0BCCD85E493E00E94F3140E94CC0ADE
:1040600083E00E948E0B0E94D20DEC01CA5BDF4FF1
:104070008DE593E00E949A16CE010E94D21486E04C
:104080000E948E0B0E94D20D8C0185E693E00E9467
:104090009A16C8010E94D214C7CFDF91CF911F9109
:1040A0000F91FF90EF90BF90AF909F908F900895E9
:1040B000FC0124813581232B39F421E0FB0180812F
:1040C000882349F020E007C0808191810E94013E51
:1040D00021E0892BB9F7822F08950F931F93CF9377
:1040E000DF938C01EB01FC01808191810097E1F06D
:1040F0006881798161157105A9F0428153812C8114
:104100003D814217530770F00E940A3E8C819D81C9
:10411000F801958384831D821C82DF91CF911F91CA
:104120000F9108950E94873C88819981F8019183BD
:1041300080838A819B81938382838C819D819583F7
:104140008483198218821B821A82E5CFFC01808148
:104150009181009711F00C94873C08950C94873C52
:104160000F931F93CF93DF93EC0188819981009780
:1041700059F02A813B812617370730F081E0DF9123
:10418000CF911F910F9108958B016F5F7F4F0E9418
:10419000103D009759F0998388831B830A832C81F3
:1041A0003D81232B59F7FC011082E8CF80E0E7CF57
:1041B000EF92FF920F931F93CF93DF93EC017B015C
:1041C0008A01BA010E94B02028813981811114C06E
:1041D0002115310519F0C9010E94873C1982188206
:1041E0001D821C821B821A82CE01DF91CF911F910A
:1041F0000F91FF90EF9008951D830C83B701C901C3
:104200000E940A3EF1CFEF92FF920F931F93CF933C
:10421000DF931F921F92CDB7DEB78C01FC01118294
:104220001082138212821582148250E040E06CE802
:1042300072E00E94D8200E94F60697FD21C08A30C5
:104240009105F1F089831A82F801E480F580FFEF8F
:10425000EF1AFF0AB701C8010E94B020882359F362
:10426000F8012081318184819581BE016F5F7F4F8C
:10427000820F931F0E940A3EF801F582E482DBCF91
:10428000C8010F900F90DF91CF911F910F91FF9078
:10429000EF900895FC011182108213821282158220
:1042A0001482FB0101900020E9F73197AF01461B12
:1042B000570B0C94D8200F931F93CF93DF93CDB758
:1042C000DEB762970FB6F894DEBF0FBECDBF84ECA9
:1042D00093E00E949A1686E89BE00E944F1483EDBB
:1042E00093E00E94F3146CE872E0CE0107960E94FE
:1042F0004A216CE872E0CE010D960E944A218DE5BC
:1043000099E00E94CE02892BA9F410E0CE010D960F
:104310000E94A620CE0107960E94A620812F6296B9
:104320000FB6F894DEBF0FBECDBFDF91CF911F91C6
:104330000F910895CE0101960E940321BE016F5F87
:104340007F4FCE010D960E946D20CE0101960E94F6
:10435000A620CE0101960E940321BE016F5F7F4F10
:10436000CE0107960E946D20CE0101960E94A620E4
:104370008BEE93E00E949A16CE0107960E944F148E
:104380008B859C8520918A0B30918B0B821793072C
:1043900009F045C00F8118856091860B7091870BDD
:1043A0000115110509F4E0C06115710549F4892B67
:1043B00009F4E3C0F801808190E0892BB1F5DDC0FC
:1043C000C8010E94013EF9CF68EC70E080E090E007
:1043D0000E94B8068DE599E00E94CE02892B09F46F
:1043E00094CFCE0101960E940321BE016F5F7F4FE3
:1043F000CE010D960E946D20CE0101960E94A6204E
:10440000CE0101960E940321BE016F5F7F4FCE0156
:1044100007960E946D20CE0101960E94A6200F8172
:1044200018850115110509F47EC04B855C85B8011E
:1044300086E89BE00E94D8206DEF73E0CE010D96D8
:104440000E945820882309F483C082E00E948E0BCA
:104450000E94D20D8F35914008F058CF10E000E057
:104460008FEF93E00E949A16CE010D960E944F1492
:104470008AE094E00E949A16CE0107960E944F149B
:1044800068E174E0CE0107960E945820882329F045
:10449000B80183E090E00E94FF146CEE74E0CE015E
:1044A00007960E945820882349F08AE194E00E94F0
:1044B000F314B80182E090E00E94FF146EED74E006
:1044C000CE0107960E945820811108C066E374E06F
:1044D000CE0107960E945820882329F0B80181E078
:1044E00090E00E94FF1468E374E0CE0107960E94FA
:1044F0005820811108C06AE374E0CE0107960E943B
:104500005820882371F061E08BE00E94400468E845
:1045100073E180E090E00E94B80660E08BE00E94CA
:10452000400411E0F3CE8091860B9091870B0097A9
:1045300011F00E94873C1092870B1092860B10920C
:104540008B0B10928A0B1092890B1092880B74CFF0
:1045500083E00E948E0B0E94D20D8F35914008F0AF
:10456000D5CE01E010E07CCF6115710531F0892BCB
:1045700021F0FB018081811152CF8DE599E00E94ED
:10458000CE02892B09F420CF8DE599E00E94AC0280
:10459000F4CF8F929F92AF92BF92EF92FF920F93C0
:1045A0001F93CF93DF938CE394E00E94F3148091E8
:1045B00026029091270224E1289FF001299FF00D07
:1045C00011248091240290912502E80FF91FE652F0
:1045D000F94F808185FD83C084E594E00E94F31447
:1045E00068E674E086E89BE00E945820811152C082
:1045F0008AE694E00E94F314C4E1D2E088E1E82E58
:1046000082E0F82E09911991802F0E94740B87E7A0
:1046100094E00E949A160E9412120E94B7180E94FB
:1046200012124B015C016091100270911102809195
:104630001202909113020E9410399B01AC01C50136
:10464000B4010E94A53B18160CF50E94121220E03E
:1046500030E048EC52E40E94093987FF17C041E07E
:1046600050E068E674E086E89BE00E94D8208EE780
:1046700094E00E94F31461E070E00730110511F03E
:1046800070E060E081E090E00E94FF14EC16FD060F
:1046900009F0B8CF0E945B21C82F8DE599E00E94F8
:1046A000CE02892B29F08DE599E00E94AC02F5CF6E
:1046B000CC23A9F0809126029091270224E1289F23
:1046C000F001299FF00D1124809124029091250280
:1046D000E80FF91FE652F94F808180628083DF91F5
:1046E000CF911F910F91FF90EF90BF90AF909F904F
:1046F0008F9008952F923F924F925F926F927F9288
:104700008F929F92AF92BF92CF92DF92EF92FF92E1
:104710000F931F93CF93DF93CDB7DEB761970FB69B
:10472000F894DEBF0FBECDBF1C0183E994E00E9468
:10473000F3148090F6059090F705A090F805B090DE
:10474000F90581E00E94740B0E94140B2FEF2E8755
:104750003FEF3F871D86998A888A8091F605909160
:10476000F705A091F805B091F9058819990997FF07
:1047700003C0919581959109821593050CF0A9C10B
:1047800082E00E948E0B0E94D20D8C0185E00E9477
:104790008E0B0E94D20D6C0183E00E948E0B0E9452
:1047A000D20D7C0186E00E948E0B0E94D20DA801E2
:1047B0004C0D5D1D9701280F391F421753070CF050
:1047C000EDC098012C193D09215B3F4F2F39310570
:1047D00008F0FAC0013E11050CF0F6C081EEC816D3
:1047E000D1040CF0F1C0CA0157FD0196959587954B
:1047F00012E765E570E0681B790B072E000C880B4B
:10480000990B0E94103920E030E040E45FE30E9401
:104810006F396B017C0120E030E048EC51E40E94EC
:10482000A53B18160CF4D6C020E030E048EC51EC63
:10483000C701B6010E94093987FF06C0C12CD12CDF
:1048400098ECE92E91ECF92E123709F0CAC020E05D
:1048500030E046E153E4C701B6010E94913A0E945C
:104860006F3B2B018AE59BE00E944A0AB20185E575
:104870009BE00E944A0A20E030E046E153E4C70191
:10488000B6010E94903A0E946F3B6B0180E59BE06D
:104890000E944A0AB6018BE49BE00E944A0A81E02A
:1048A0000E948E0B0E94D20D8C0184E00E948E0B20
:1048B0000E94D20D0436110524F4843691050CF4BF
:1048C00008C180E00E948E0BAE01475F5F4FBE01C2
:1048D0006B5F7F4FCE0101960E94681369817A81D8
:1048E0008B819C810E94B718C980DA80EB80FC80A4
:1048F00020E030E04CEC52E4C701B6010E94A53B39
:1049000018160CF489C004E112E0F801E190F1906E
:104910008F018E2D0E94740B68E674E086E89BE0A0
:104920000E945820811133C00E9412122B013C01B9
:104930006091100270911102809112029091130205
:104940000E9410399B01AC01C301B2010E94A53B3A
:104950001816ECF40E94121220E030E048EC52E409
:104960000E94093987FF13C08EE994E00E94F31476
:104970000E9412120E94B71891E080E0F7E0EF1653
:10498000F10409F090E09E878F8721E02D8788E170
:1049900092E08017910709F0B8CFDFCEA701481B3E
:1049A000590B415B5F4F4F39510588F4E1EEEE162C
:1049B000F1046CF4813E910554F4C90137FD019670
:1049C000959587951CE615CF85E590E011CF85E597
:1049D00090E0F8CFC12CD12C88ECE82E81E4F82EA1
:1049E00033CFA701960160E070E086E193E40E9476
:1049F000903A0E946F3B2B018AE59BE00E944A0A95
:104A0000B20185E59BE00E944A0AA701960160E099
:104A100070E086E193EC35CF20E030E040EF52E4E7
:104A2000C701B6010E94093987FF6DCFAE01475F0C
:104A30005F4FBE016B5F7F4FCE0101960E946813EE
:104A4000C980DA80EB80FC8020E030E04CEC52E45E
:104A5000C701B6010E94A53B18160CF054CF20E008
:104A600030E040EF52E4C701B6010E94093987FFE8
:104A70004ACF0091F6051091F7052091F805309185
:104A8000F90588899989081B190B17FF03C011952F
:104A900001951109C090F605D090F705E090F80552
:104AA000F090F9058091F6059091F705A091F80531
:104AB000B091F905F601E81BF90BCF01F7FF03C030
:104AC00091958195910980179107CCF50E94FC0A78
:104AD000E9CF11E083EB94E00E94F3140E942C0BC9
:104AE0000E947F19FD85FF2361F141E050E068E6F7
:104AF00074E086E89BE00E94D8206E857F8581E087
:104B000090E00E94FF140E945B21812F61960FB6F6
:104B1000F894DEBF0FBECDBFDF91CF911F910F91F3
:104B2000FF90EF90DF90CF90BF90AF909F908F90CD
:104B30007F906F905F904F903F902F90089510E07E
:104B4000C9CF0E94C922E1CF8F929F92AF92BF92AC
:104B5000CF92DF92EF92FF920F931F93CF93DF9349
:104B6000CDB7DEB762970FB6F894DEBF0FBECDBFEC
:104B70007C018B01FB01349680E2DF011D928A9556
:104B8000E9F784E290E0A0E0B0E0FB01808391834C
:104B9000A283B383F70186819781A085B185FB014C
:104BA00084839583A683B78383E090E0A0E0B0E0A0
:104BB00080879187A287B3870E94EA06D801509622
:104BC0006D937D938D939C9353978CE0FE0131966A
:104BD000DF011D928A95E9F76E01BDE0CB0ED11C75
:104BE00086E0F60111928A95E9F7D70113968C9128
:104BF0000E94E801F70184819581DC01ED91FC912F
:104C00000190F081E02D6AE11995F7018481958189
:104C10000E941E0946E0D70113966C9113971496D3
:104C20008D919C910E94AB0B5E01B3E1AB0EB11C68
:104C3000F70184819581DC01ED91FC910284F3857B
:104C4000E02D1995F60181936F01EA15FB0581F7B7
:104C50006D857E85072E000C880B990B0E941039FC
:104C600020E030E040E85DE30E946F394B015C01D9
:104C70006F857889072E000C880B990B0E941039DC
:104C800020E030E040E85DE30E946F396B017C0179
:104C900069897A89072E000C880B990B0E941039BC
:104CA00020E030E040E85DE30E946F39D80154967F
:104CB0008D929D92AD92BC925797F801C08ED18E85
:104CC000E28EF38E5C966D937D938D939C935F97AC
:104CD00081E062960FB6F894DEBF0FBECDBFDF91C4
:104CE000CF911F910F91FF90EF90DF90CF90BF90E9
:104CF000AF909F908F9008952F923F924F925F9226
:104D00006F927F928F929F92AF92BF92CF92DF92DB
:104D1000EF92FF920F931F93CF93DF93CDB7DEB740
:104D2000A4970FB6F894DEBF0FBECDBF7C010E94E2
:104D3000D2148091D8069091D9069701281B390B7F
:104D4000C901049664E070E00E94BB3B823091058B
:104D500009F485C08330910509F4BAC1019709F0BF
:104D600092C164EF71E080E090E00E94B8068DE9A6
:104D700092E00E94F31480E00E94740BBE016F5F0A
:104D80007F4F8BE69BE00E94A4256D897E898F89E9
:104D9000988D0E946F3B1B010E94E40A3AE5C32EE6
:104DA000D12CB101032C000C880B990B0E941039F7
:104DB0002B013C01AC019B016D897E898F89988D07
:104DC0000E94903A0E946F3B8B0177FF04C000273E
:104DD0001127061B170B0C151D0564F5BE016F5F2F
:104DE0007F4F8BE69BE00E94A4256D897E898F8989
:104DF000988D0E94B7188D889E88AF88B88CA301C3
:104E00009201C501B4010E94903A0E946F3B9B0140
:104E100077FF04C022273327261B370B25363105A1
:104E20000CF4BFCFC01AD10AC501B4010E946F3B78
:104E30001B01B7CF82EC94E00E94F3140E944B1444
:104E40000E942C0B64EF71E080E090E00E94B806B5
:104E50000E947F198BE490E00E947A2312C18EECAD
:104E600094E00E94F3148090F6059090F705A090CE
:104E7000F805B090F9050E94FC0A8091F605909122
:104E8000F705A091F805B091F9058819990997FFE0
:104E900003C09195819591098634910574F30E9420
:104EA0002C0B64EF71E080E090E00E94B80688E986
:104EB00092E00E94F31480E00E94740BBE016F5FC9
:104EC0007F4F8BE69BE00E94A4256D897E898F89A8
:104ED000988D0E946F3B1B010E94CC0A2AE5C22ECE
:104EE000D12CB101032C000C880B990B0E941039B6
:104EF0002B013C01AC019B016D897E898F89988DC6
:104F00000E94903A0E946F3B8B0177FF04C00027FC
:104F10001127061B170B0C151D0564F5BE016F5FED
:104F20007F4F8BE69BE00E94A4256D897E898F8947
:104F3000988D0E94B7188D889E88AF88B88CA30181
:104F40009201C501B4010E94903A0E946F3B9B01FF
:104F500077FF04C022273327261B370B2536310560
:104F60000CF4BFCFC01AD10AC501B4010E946F3B37
:104F70001B01B7CF82EC94E00E94F3140E944B1403
:104F80000E942C0B64EF71E080E090E00E94B80674
:104F90000E94C92264EF71E080E090E00E94B806B0
:104FA00088E992E00E94F31480E00E94740BBE0135
:104FB0006F5F7F4F8BE69BE00E94A4256D897E8901
:104FC0008F89988D0E946F3B1B010E94CC0A9AE545
:104FD000C92ED12CB101032C000C880B990B0E9417
:104FE00010392B013C01AC019B016D897E898F89B1
:104FF000988D0E94903A0E946F3B8B0177FF04C00E
:1050000000271127061B170B0C151D0564F5BE01A3
:105010006F5F7F4F8BE69BE00E94A4256D897E89A0
:105020008F89988D0E94B7188D889E88AF88B88C1C
:10503000A3019201C501B4010E94903A0E946F3B06
:105040009B0177FF04C022273327261B370B253609
:1050500031050CF4BFCFC01AD10AC501B4010E94BA
:105060006F3B1B01B7CF82EC94E00E94F3140E94C7
:105070004B140E942C0B64EF71E080E090E00E94E2
:10508000B8060E94C922F092D906E092D806809113
:10509000F6059091F705A091F805B091F905A49651
:1050A0000FB6F894DEBF0FBECDBFDF91CF911F9139
:1050B0000F91FF90EF90DF90CF90BF90AF909F90B7
:1050C0008F907F906F905F904F903F902F900895BA
:1050D00064EF71E080E090E00E94B80688E992E019
:1050E0000E94F31480E00E94740BBE016F5F7F4F3B
:1050F0008BE69BE00E94A4256D897E898F89988D1F
:105100000E946F3B1B010E94CC0A8AE5C82ED12C5D
:10511000B101032C000C880B990B0E9410392B0154
:105120003C01AC019B016D897E898F89988D0E941D
:10513000903A0E946F3B8B0177FF04C00027112734
:10514000061B170B0C151D0564F5BE016F5F7F4F25
:105150008BE69BE00E94A4256D897E898F89988DBE
:105160000E94B7188D889E88AF88B88CA3019201E1
:10517000C501B4010E94903A0E946F3B9B0177FFEA
:1051800004C022273327261B370B253631050CF4A4
:10519000BFCFC01AD10AC501B4010E946F3B1B01E9
:1051A000B7CF82EC94E00E94F3140E944B140E944B
:1051B0002C0B64EF71E080E090E00E94B8060E9442
:1051C0007F1988E290E048CE0F931F93CF93DF932F
:1051D0008C01EB0188E2FB0111928A95E9F74BE023
:1051E00050E062ED74E0CE010E94113E1B8681E02A
:1051F00090E0A0E0B0E08C879D87AE87BF87F80184
:1052000086819781A085B185888B998BAA8BBB8B72
:1052100083E090E0A0E0B0E08C8B9D8BAE8BBF8BE9
:105220001CA21DA21EA21FA2188E198E1A8E1B8EE2
:105230001C8E1D8E1E8E1F8E8AE097EDA3E2BCE3AE
:1052400088A399A3AAA3BBA3DF91CF911F910F912C
:10525000089585ED8093BC008091980890919908FD
:10526000A0919A08B0919B080796A11DB11D23E05B
:10527000B695A795979587952A95D1F72091BC006B
:1052800024FD03C01092960808954091980850910B
:10529000990860919A0870919B08452B462B472BE3
:1052A00069F30097A105B10541F025E32A95F1F7CF
:1052B00000000197A109B109E1CF809197080C94F2
:1052C0008707AF92BF92CF92DF92EF92FF920F9338
:1052D0001F93CF93DF937C018B015A01690188E012
:1052E00090E00E94EB3BEC01892B81F489ED94E086
:1052F0000E94343ECE01DF91CF911F910F91FF901C
:10530000EF90DF90CF90BF90AF90089588E0FE01BE
:1053100011928A95E9F7BB82AA82DD82CC82EF28BE
:1053200049F3F801D783C68319830883E3CF6F92CB
:105330007F928F929F92AF92BF92CF92DF92EF9225
:10534000FF920F931F93CF93DF93CDB7DEB7C05477
:10535000D6400FB6F894DEBF0FBECDBF40E253E09B
:105360006FEF7FEFCE0101960E94FA3DC0902602BA
:10537000D090270200912402109125029801A601E5
:1053800070E060E090E080E00E946129782E692E54
:1053900024E12C9DC0012D9D900D1124800F911FA3
:1053A000FC01EE0FFF1F21E030E02C0F3D1FE20F4C
:1053B000F31F91838083E72CF62C84E1A82EAC9C0C
:1053C000F001AD9CF00D1124E00FF11FE652F94FF2
:1053D000808180FD41C0C114D10449F480EE94E085
:1053E0009F938F930E94203E0F900F90FFCFA601B6
:1053F00041505109A49EC001A59E900D1124800F1B
:10540000911FFC01E652F94F208124FF24C14C0179
:10541000880C991C81E090E08C0F9D1F880E991ECE
:10542000D4018D919C910196B9F49801672D762D48
:10543000C7010E946129782E692EF70122813381EC
:10544000A29EC001A39E900D112424813581820F5C
:10545000931FD4018D939C93AC9CA001AD9C500DE7
:105460001124CA01800F911FFC01E652F94F2081DF
:1054700021FD3FC00331110549F480EE94E09F9374
:105480008F930E94203E0F900F90FFCF98012F5FC7
:105490003F4F420F531FFA01E652F94F408144FF3C
:1054A00037C14C01BFEF8B1A9B0A880C991CE1E0B5
:1054B000F0E0EC0FFD1F8E0E9F1ED4018D919C918C
:1054C0000196B9F4A601672D762DC7010E946129C6
:1054D000782E692EF70122813381A29EC001A39EFE
:1054E000900D112424813581820F931FD4018D9357
:1054F0009C93AC9CF001AD9CF00D1124E00FF11FCA
:10550000E652F94F808182FD42C0B3E1CB16D1044F
:1055100049F480EE94E09F938F930E94203E0F9079
:105520000F90FFCFA6014F5F5F4FA49EC001A59EC5
:10553000900D1124800F911FFC01E652F94F20813C
:1055400024FF89C04C01880C991CE1E0F0E0EC0FCD
:10555000FD1F8E0E9F1ED4018D919C910196B9F472
:105560009801672D762DC7010E946129782E692E3A
:10557000F70122813381A29EC001A39E900D1124C8
:1055800024813581820F931FD4018D939C93AC9C11
:10559000A001AD9C500D1124CA01800F911FFC0188
:1055A000E652F94F208123FD3FC00115110549F452
:1055B00080EE94E09F938F930E94203E0F900F9077
:1055C000FFCF980121503109420F531FFA01E652D3
:1055D000F94F408144FF9CC04C01B1E08B1A910807
:1055E000880C991CE1E0F0E0EC0FFD1F8E0E9F1E71
:1055F000D4018D919C910196B9F4A601672D762D69
:10560000C7010E946129782E692EF701228133811A
:10561000A29EC001A39E900D112424813581820F8A
:10562000931FD4018D939C93F701868097808114FA
:10563000910409F4C3C1C7010E94873CD4011196AB
:105640001C921E921296CD90DC90139714960D9199
:105650001C917401B4CE6A0154E1A52EAC9C4001AA
:10566000AD9C900C1124800E911EF401EE0FFF1FD3
:1056700021E030E02C0F3D1FE20FF31FD7011296FF
:105680002D913C911397A29EC001A39E900D1124D1
:1056900014962D913C91820F931F9183808340E952
:1056A00051E06FEF7FEFCE018F5D9C4F0E94FA3D7E
:1056B000CF5DDC4F99828882C152D340809126020F
:1056C00090912702A89E9001A99E300D11248091EF
:1056D000240290912502280F391FDE01AF5DBC4FD7
:1056E000F12CE12C8D919D918217930799F0EFEFAA
:1056F000EE1AFE0A880F991FE1E0F0E0EC0FFD1FA3
:10570000E80FF91F8081918111969C938E93EACFC7
:105710008901A2CFEE0CFF1C21E233E02C0F3D1FCC
:10572000E20EF31E94E1A92E24E1622E712CD70122
:105730005E914E917D0120912602309127028416C0
:10574000950609F455C0A29EC001A39E900D112498
:105750002091240230912502820F931F841B950B08
:105760008431910509F58091D8069091D906892B4D
:1057700039F090E080E00E947C268EEE92E002C03C
:1057800082E593E00E947A23B82ED7018D919C91F7
:10579000B3010E94BB3B7093270260932602909353
:1057A000250280932402C3CF8C3EBFEF9B0749F4B0
:1057B0008091D8069091D906029711F382E090E08B
:1057C000DACF8130910549F48091D8069091D906BD
:1057D0000397B1F283E090E0CECF0196B1F68091CD
:1057E000D8069091D906019759F281E090E0C3CF95
:1057F0002C193D0921303105B1F58091D8069091E1
:10580000D906892B39F090E080E00E947C268EEE4C
:1058100092E002C082E593E00E947A23B82ED092F3
:105820002702C092260210932502009324020E94B0
:105830009C16BB2009F443C081E0C05CD94F0FB671
:10584000F894DEBF0FBECDBFDF91CF911F910F91B6
:10585000FF90EF90DF90CF90BF90AF909F908F9090
:105860007F906F9008952F3F3F4F49F48091D80665
:105870009091D906029771F282E090E0C6CF8091B4
:10588000240290912502801B910B8130910551F4E7
:105890008091D8069091D906039709F4BBCF83E095
:1058A00090E0B3CF019609F0BACF8091D8069091DD
:1058B000D906019709F4AECF81E090E0A6CF209100
:1058C000260230912702809124029091250254E112
:1058D000529FF001539FF00D1124E80FF91FE6527B
:1058E000F94F40814760486040832115310569F5D3
:1058F000A9014F5F5F4F64E1649FF001659FF00D68
:105900001124E80FF91FE652F94F408141604083AE
:10591000009771F544E1429FF001439FF00D11247F
:10592000E80FF91FE552F94F4081486040834091EC
:10593000D8065091D9064115510559F52150310924
:10594000309327022093260277CFB9016150710965
:10595000569FF001579FF00D1124E80FF91FE652F2
:10596000F94F4081446040832431310589F2C0CF32
:1059700044E1429FF001439FF00D1124E80FF91F0D
:10598000E752F94F4081426040838431910579F2BA
:10599000C1CF4130510531F4019790932502809396
:1059A00024024ACF4230510519F42F5F3F4FC8CF30
:1059B0004330510509F040CF0196EFCF80E03DCF55
:1059C0001F920F920FB60F9211240BB60F922F93C6
:1059D0003F934F935F936F937F938F939F93AF9377
:1059E000BF93EF93FF9380EC98E00E94F802FF9141
:1059F000EF91BF91AF919F918F917F916F915F9147
:105A00004F913F912F910F900BBE0F900FBE0F90B3
:105A10001F9018951F920F920FB60F9211240BB67C
:105A20000F922F933F934F935F936F937F938F9337
:105A30009F93AF93BF93EF93FF9380EC98E00E9406
:105A40008402FF91EF91BF91AF919F918F917F91D0
:105A50006F915F914F913F912F910F900BBE0F90DF
:105A60000FBE0F901F9018951F920F920FB60F92B6
:105A700011240BB60F922F933F934F935F936F9325
:105A80007F938F939F93AF93BF93EF93FF938DE596
:105A900099E00E94F802FF91EF91BF91AF919F9121
:105AA0008F917F916F915F914F913F912F910F90C7
:105AB0000BBE0F900FBE0F901F9018951F920F9264
:105AC0000FB60F9211240BB60F922F933F934F9363
:105AD0005F936F937F938F939F93AF93BF93EF9356
